{"abi":[{"type":"function","name":"VERIFIER_HASH","inputs":[],"outputs":[{"name":"","type":"bytes32","internalType":"bytes32"}],"stateMutability":"pure"},{"type":"function","name":"VERSION","inputs":[],"outputs":[{"name":"","type":"string","internalType":"string"}],"stateMutability":"pure"},{"type":"function","name":"Verify","inputs":[{"name":"proof","type":"bytes","internalType":"bytes"},{"name":"public_inputs","type":"uint256[]","internalType":"uint256[]"}],"outputs":[{"name":"success","type":"bool","internalType":"bool"}],"stateMutability":"view"},{"type":"function","name":"hashPublicValues","inputs":[{"name":"publicValues","type":"bytes","internalType":"bytes"}],"outputs":[{"name":"","type":"bytes32","internalType":"bytes32"}],"stateMutability":"pure"},{"type":"function","name":"verifyProof","inputs":[{"name":"programVKey","type":"bytes32","internalType":"bytes32"},{"name":"publicValues","type":"bytes","internalType":"bytes"},{"name":"proofBytes","type":"bytes","internalType":"bytes"}],"outputs":[],"stateMutability":"view"},{"type":"error","name":"InvalidProof","inputs":[]},{"type":"error","name":"WrongVerifierSelector","inputs":[{"name":"received","type":"bytes4","internalType":"bytes4"},{"name":"expected","type":"bytes4","internalType":"bytes4"}]}],"bytecode":{"object":"0x6080604052348015600e575f5ffd5b506126108061001c5f395ff3fe608060405234801561000f575f5ffd5b5060043610610055575f3560e01c80632a5104361461005957806341493c601461008e5780636b61d8e7146100a35780637e4f7a8a146100b6578063ffa1ad74146100d9575b5f5ffd5b7fd4e8ecd2357dd882209800acd6abb443d231cf287d77ba62b732ce937c8b56e75b6040519081526020015b60405180910390f35b6100a161009c3660046122ba565b610101565b005b61007b6100b1366004612333565b610294565b6100c96100c4366004612372565b6102f7565b6040519015158152602001610085565b6040805180820182526006815265076352e302e360d41b60208201529051610085919061240e565b5f61010f6004828486612443565b6101189161246a565b90507fd4e8ecd2357dd882209800acd6abb443d231cf287d77ba62b732ce937c8b56e7636a74766960e11b6001600160e01b03198316146101845760405163988066a160e01b81526001600160e01b031980841660048301528216602482015260440160405180910390fd5b5f61018f8787610294565b6040805160028082526060820183529293505f929091602083019080368337019050509050885f1c815f815181106101c9576101c96124a2565b602002602001018181525050815f1c816001815181106101eb576101eb6124a2565b60209081029190910101525f30637e4f7a8a61020a886004818c612443565b856040518463ffffffff1660e01b8152600401610229939291906124b6565b602060405180830381865afa158015610244573d5f5f3e3d5ffd5b505050506040513d601f19601f82011682018060405250810190610268919061252e565b905080610288576040516309bde33960e01b815260040160405180910390fd5b50505050505050505050565b5f6001600160fd1b035f1b600284846040516102b1929190612554565b602060405180830381855afa1580156102cc573d5f5f3e3d5ffd5b5050506040513d601f19601f820116820180604052508101906102ef9190612563565b169392505050565b5f60405161024081016103098461061d565b6103138585610630565b61031c8661066c565b61032587610682565b5f61033186868a610797565b905061033c81610aba565b90506103488189610b0d565b90506103548189610b88565b5060608201515f51602061259b5f395f51905f525f5160206125bb5f395f51905f526103858463010000008561221d565b086101c084015250610398818587610be0565b6103a382868a610e1a565b91505f51602061259b5f395f51905f528183086101a0840152506103c79050611107565b6103d086611f41565b6103d986611e92565b6103e286611c81565b6103eb866117d3565b6103f486611598565b6103fd866111e6565b6102000151905061226d565b60405162461bcd60e51b815260206004820152601d60248201527f77726f6e67206e756d626572206f66207075626c696320696e707574730000006044820152606481fd5b60405162461bcd60e51b815260206004820152600c60248201526c06572726f72206d6f642065787609c1b6044820152606481fd5b60405162461bcd60e51b815260206004820152601260248201527132b93937b91032b19037b832b930ba34b7b760711b6044820152606481fd5b60405162461bcd60e51b815260206004820152601860248201527f696e707574732061726520626967676572207468616e207200000000000000006044820152606481fd5b60405162461bcd60e51b815260206004820152601060248201526f77726f6e672070726f6f662073697a6560801b6044820152606481fd5b60405162461bcd60e51b815260206004820152601660248201527537b832b734b733b9903134b3b3b2b9103a3430b7103960511b6044820152606481fd5b60405162461bcd60e51b815260206004820152600d60248201526c6572726f722070616972696e6760981b6044820152606481fd5b60405162461bcd60e51b815260206004820152600c60248201526b6572726f722076657269667960a01b6044820152606481fd5b60405162461bcd60e51b81526020600482015260146024820152736572726f722072616e646f6d2067656e206b7a6760601b6044820152606481fd5b6002811461062d5761062d610409565b50565b5f5b81811015610667575f5160206125bb5f395f51905f5283351115610658576106586104bd565b60209290920191600101610632565b505050565b61036081811461067e5761067e610502565b5050565b61018081015f5160206125bb5f395f51905f52813511156106a5576106a561053a565b506101a081015f5160206125bb5f395f51905f52813511156106c9576106c961053a565b506101c081015f5160206125bb5f395f51905f52813511156106ed576106ed61053a565b506101e081015f5160206125bb5f395f51905f52813511156107115761071161053a565b5061020081015f5160206125bb5f395f51905f52813511156107355761073561053a565b5061026081015f5160206125bb5f395f51905f52813511156107595761075961053a565b5061030081015f5b6001811015610667575f5160206125bb5f395f51905f52823511156107885761078861053a565b60209190910190600101610761565b5f60405161024081016467616d6d6181527f239ed22af3191cfccd323949e417667defbcb082d9f31527488e523372ea9e7a60208201527f213da3cb623029a98e0186dc8c1a3a31ee249ab93bfb68abc1103900890eccb960408201527f01fd59b61f15d097ad7701c4dc12b8739eadc1d54664773c3ed5d8104c296c2a60608201527e22ee53909feab41bb47f0e6ddb802bb6096fd2027d89c22d94b4e56e227cd060808201527f14992dea1a6515e3f8a2250e30cb9e3bad58ff44bbfdd1390bc8d0a8f2bddd0f60a08201527f1e82777c7079b474d31f9fedafca8f2d108de5c58a2df629a8af49cd424c8c2960c08201527f060081d04d187d301d4223990acab3c887713358f1705af7f53e07aca0f709dd60e08201527f16911506ad1ccf9b39db250ce7752278c8115127c4f85080c2bd153946b4a5be6101008201527f279df33b57d698efd752579ee90674a7241ecdb21c6cb35cdf8ef7c1af73160a6101208201527f202fa12c1e82de2f49dc4c5bc771b94c8495544bb0055c4c381744cc3d1d332d6101408201527f040315f3fd753e8cca89f353d096fb94fcdf9cd41973954a3dd4ec58cba79d5f6101608201527f18e0b4a84e9429c05d0fd0d304acd0f3cfa93437356c112199d4d7c0162a1c9e6101808201527f2e14e072ab351d1b3838323f75ecf9b6c08043c230423d515febd04e29336b776101a08201527f1553e1a7b6e18ba105733244604cd37d82371c3a7b0503fa4aff460870170bcf6101c08201527f0c203d7594efa49bd977084de30db24ce843e501791176c21b5beda79ceaf1366101e08201527f0c4bddeb52250b0114282b00285f224b812fc581f2b55e5c3a49472069f901f36102008201527f2fb4fbb4677318edec4b80fc8fa22ffcce4a51d5f3771e575e726e790a9f9cbe6102208201527f28518b11376dc02418849d45b1f3b0e00d3f74502d713b002b9d7293a1018d79610240820152610260810160208602808883379081019060c0808784375061030501905060208282601b820160025afa905080610a9757610a976105ad565b5080519250505f51602061259b5f395f51905f5282066040820152509392505050565b5f60405161024060405101636265746181528360208201526020816024601c840160025afa80610aec57610aec6105ad565b5080519250505f51602061259b5f395f51905f528206602082015250919050565b5f60405161024060405101606564616c7068618252602082018681526020810190506103208601600160400280828437928301929190910190506040610220870182375060208282601b850160025afa905080610b6c57610b6c6105ad565b50515f51602061259b5f395f51905f5281069091529392505050565b60405161024060405101637a657461815283602082015260c0808401604083013760208160e4601c840160025afa80610bc357610bc36105ad565b50515f51602061259b5f395f51905f529006606091909101525050565b5f60405160608101516101c0820151915085610bfe81878585610c53565b5f92505f91505b85821015610c49575f51602061259b5f395f51905f52853582510992505f51602061259b5f395f51905f528385086020958601959094506001929092019101610c05565b5050509392505050565b5f51602061259b5f395f51905f527f30644e427ce32d4886b01bfe313ba1dba6db8b2045d128178a7164500e0a6c1183096001855f5b86811015610ce2575f51602061259b5f395f51905f52835f51602061259b5f395f51905f5203860882525f51602061259b5f395f51905f525f51602061257b5f395f51905f528409925060209190910190600101610c89565b50610cee818789610d5a565b5060019050855f5b86811015610d50575f51602061259b5f395f51905f52835f51602061259b5f395f51905f52868551090982526020820191505f51602061259b5f395f51905f525f51602061257b5f395f51905f5284099250600101610cf6565b5050505050505050565b600183525f5f5b83811015610d9c5781850151828401515f51602061259b5f395f51905f52818309905060208401935080848801525050600181019050610d61565b506020810382019150808401935050610dca6020840160025f51602061259b5f395f51905f5203855161221d565b5f5b83811015610e135760208503945082515f51602061259b5f395f51905f528651840984525f51602061259b5f395f51905f52818409601f1990940193925050600101610dcc565b5050505050565b5f60405160608101516101c0820151915061032084015f5f610e428960208501358535610f41565b9150610e558962a653508a018787610e78565b90505f51602061259b5f395f51905f528082840987089998505050505050505050565b5f610e9185855f51602061257b5f395f51905f5261221d565b5f51602061259b5f395f51905f52815f51602061259b5f395f51905f5203840894505f51602061259b5f395f51905f527f30644e427ce32d4886b01bfe313ba1dba6db8b2045d128178a7164500e0a6c1182099050610f11867f30644e72e131a029b85045b68181585d2833e84879b9709143e1f593efffffff8761221d565b94505f51602061259b5f395f51905f5285820990505f51602061259b5f395f51905f528482099695505050505050565b5f83525f602084015280604084015250806060830152505f6080820153603060818201535f60828201536042608382015360536084820153604260858201536032608682015360326087820153602d608882015360506089820153606c608a820153606f608b820153606e608c820153606b608d820153600b608e8201535f602082608f8460025afa80610fd757610fd76105ad565b8251600160208501536042602185015360536022850153604260238501536032602485015360326025850153602d602685015360506027850153606c6028850153606f6029850153606e602a850153606b602b850153600b602c850153602084602d8660025afa91508161104d5761104d6105ad565b8351186020840152600260408401536042604184015360536042840153604260438401536032604484015360326045840153602d604684015360506047840153606c6048840153606f6049840153606e604a840153606b604b840153600b604c84015360208301602081602d8360025afa915050806110ce576110ce6105ad565b505f51602061259b5f395f51905f52600160801b8351099050602082015160801c5f51602061259b5f395f51905f528183089392505050565b604051610240604051016101c08201515f51602061259b5f395f51905f5260015f51602061259b5f395f51905f5203606085015108611167837f30644e72e131a029b85045b68181585d2833e84879b9709143e1f593efffffff8361221d565b90505f51602061259b5f395f51905f527f30644e427ce32d4886b01bfe313ba1dba6db8b2045d128178a7164500e0a6c11820990505f51602061259b5f395f51905f528282098451935091505f51602061259b5f395f51905f52905082820990505f51602061259b5f395f51905f528282099050806080840152505050565b60405161024081016101608201518152610180820151602082015261028083013560408201526102a08301356060820152610220830135608082015261024083013560a08201526102c083013560c08201526102e083013560e082015260608201516101008201526101e08201516101208201526020816101408360025afa80611272576112726105e1565b5f51602061259b5f395f51905f5282510690508160408101925061028085013581526102a085013560208201526112af83836102c08801846121aa565b61016084016112c484846102208901846121aa565b61014085016112d8846102608901836121f1565b7f1fa4be93b5e7f7e674d5059b63554fab99638b304ed8310e9fa44c281ac9b03b85527f1a01ae7fac6228e39d3cb5a5e71fd31160f3241e79a5f48ffb3737e6c389b7216020860152805160408087019182529095908160608160075afa915081611345576113456105ad565b60208101915081517f30644e72e131a029b85045b68181585d97816a916871ca8d3c208c16d87cfd4703825261137d868285866120a1565b50508360408501945061139a8560608801516102808a0184612138565b5f51602061259b5f395f51905f525f51602061257b5f395f51905f5260608801510995505f51602061259b5f395f51905f5286850993506113e185856102c08a01846121aa565b6113ed858284856120a1565b50602082810180517f30644e72e131a029b85045b68181585d97816a916871ca8d3c208c16d87cfd470381528251865291810151908501527f198e9393920d483a7260bfb731fb5d25f1aa493335a9e71297e485b7aef312c260408501527f1800deef121f1e76426a00665e5c4479674322d4f75edadd46debd5cd992f6ed60608501527f090689d0585ff075ec9e99ad690c3395bc4b313370b38ef355acdadcd122975b60808501527f12c85ea5db8c6deb4aab71808dcb408fe3d1e7690c43d37b4ce6cc0166fa7daa60a0850152905160c0840152805160e08401527f22f1acbb03c4508760c2430af35865e7cdf9f3eb1224504fdcc3708ddb954a486101008401527f2a344fad01c2ed0ed73142ae1752429eaea515c6f3f6b941103cc21c2308e1cb6101208401527f159f15b842ba9c8449aa3268f981010d4c7142e5193473d80b464e964845c3f86101408401527f0efd30ac7b6f8d0d3ccbc2207587c2acbad1532dc0293f0d034cf8258cd428b3610160840152925061066790508160405160205f6101808460085afa8061158a5761158a610578565b505f51610200919091015250565b6040516102406040510160208101604082016101e084015180610160860160e087015181526101008701516101808801526101208701516101408801526115e386835f8b01846121aa565b6115f6826101808a016101408a016121f1565b5f51602061259b5f395f51905f528383099150611618868360408b01846121aa565b61162b826101a08a016101408a016121f1565b5f51602061259b5f395f51905f52838309915061164d868360808b01846121aa565b611660826101c08a016101408a016121f1565b5f51602061259b5f395f51905f5283830991507f239ed22af3191cfccd323949e417667defbcb082d9f31527488e523372ea9e7a86527f213da3cb623029a98e0186dc8c1a3a31ee249ab93bfb68abc1103900890eccb985526116c584838884612163565b6116d8826101e08a016101408a016121f1565b5f51602061259b5f395f51905f5283830991507f01fd59b61f15d097ad7701c4dc12b8739eadc1d54664773c3ed5d8104c296c2a86527e22ee53909feab41bb47f0e6ddb802bb6096fd2027d89c22d94b4e56e227cd0855261173c84838884612163565b61174f826102008a016101408a016121f1565b61030088015f51602061259b5f395f51905f5284840992507f2fb4fbb4677318edec4b80fc8fa22ffcce4a51d5f3771e575e726e790a9f9cbe87527f28518b11376dc02418849d45b1f3b0e00d3f74502d713b002b9d7293a1018d7986526117b985848985612163565b6117c883826101408b016121f1565b505050505050505050565b6040516467616d6d616102408201908152606082015161026083015260e08201516102808301526101008201516102a083015260c0836102c08401377f239ed22af3191cfccd323949e417667defbcb082d9f31527488e523372ea9e7a6101408201527f213da3cb623029a98e0186dc8c1a3a31ee249ab93bfb68abc1103900890eccb96101608201527f01fd59b61f15d097ad7701c4dc12b8739eadc1d54664773c3ed5d8104c296c2a610180808301919091527e22ee53909feab41bb47f0e6ddb802bb6096fd2027d89c22d94b4e56e227cd06101a0808401919091527f2fb4fbb4677318edec4b80fc8fa22ffcce4a51d5f3771e575e726e790a9f9cbe6101c0808501919091527f28518b11376dc02418849d45b1f3b0e00d3f74502d713b002b9d7293a1018d796101e0808601919091526101208601516102008087019190915293870135610220860152918601356102408501528501356102608401528401356102808301528301356102a08201526102c081016103008401602081833750610260840135602091820152601b906102e5906101e085018285850160025afa9250505080611988576119886105ad565b506101e00180515f51602061259b5f395f51905f529006905250565b604051610240604051017f060081d04d187d301d4223990acab3c887713358f1705af7f53e07aca0f709dd81527f16911506ad1ccf9b39db250ce7752278c8115127c4f85080c2bd153946b4a5be6020820152611a0e604082016101808501358360e0860161210d565b7f279df33b57d698efd752579ee90674a7241ecdb21c6cb35cdf8ef7c1af73160a81527f202fa12c1e82de2f49dc4c5bc771b94c8495544bb0055c4c381744cc3d1d332d6020820152611a6e604082016101a08501358360e08601612163565b5f51602061259b5f395f51905f526101a0840135610180850135097f040315f3fd753e8cca89f353d096fb94fcdf9cd41973954a3dd4ec58cba79d5f82527f18e0b4a84e9429c05d0fd0d304acd0f3cfa93437356c112199d4d7c0162a1c9e6020830152611ae460408301828460e08701612163565b507f2e14e072ab351d1b3838323f75ecf9b6c08043c230423d515febd04e29336b7781527f1553e1a7b6e18ba105733244604cd37d82371c3a7b0503fa4aff460870170bcf6020820152611b45604082016101c08501358360e08601612163565b7f0c203d7594efa49bd977084de30db24ce843e501791176c21b5beda79ceaf13681527f0c4bddeb52250b0114282b00285f224b812fc581f2b55e5c3a49472069f901f36020820152611ba0604082018260e08501806120a1565b610300830161032084015f5b6001811015611bec578135845260208201356020850152611bd66040850184358660e08901612163565b6020929092019160409190910190600101611bac565b5050507f14992dea1a6515e3f8a2250e30cb9e3bad58ff44bbfdd1390bc8d0a8f2bddd0f81527f1e82777c7079b474d31f9fedafca8f2d108de5c58a2df629a8af49cd424c8c296020820152611c4a60408201858360e08601612163565b61022083013581526102408301356020820152611c6f60408201868360e08601612163565b610e138160a0840160e08501806120a1565b6040516020810151604082015160608301515f8401515f51602061259b5f395f51905f5284610260880135095f51602061259b5f395f51905f526101e088013586095f51602061259b5f395f51905f52610180890135820890505f51602061259b5f395f51905f5285820890505f51602061259b5f395f51905f5261020089013587095f51602061259b5f395f51905f526101a08a0135820890505f51602061259b5f395f51905f5286820890505f51602061259b5f395f51905f528284095f51602061259b5f395f51905f5282820990505f51602061259b5f395f51905f5285820990505f51602061259b5f395f51905f52600580095f51602061259b5f395f51905f52878a0998505f51602061259b5f395f51905f526101808c01358a0894505f51602061259b5f395f51905f5288860894505f51602061259b5f395f51905f5260058a0993505f51602061259b5f395f51905f526101a08c0135850893505f51602061259b5f395f51905f5288850893505f51602061259b5f395f51905f52818a099250505f51602061259b5f395f51905f526101c08b0135830891505f51602061259b5f395f51905f5287830891505f51602061259b5f395f51905f5283850997505f51602061259b5f395f51905f528289095f51602061259b5f395f51905f52908103985085890997505f51602061259b5f395f51905f5260808a01518908975061028888828c6119a4565b604051600263010000000161024060405101611eb38183606086015161221d565b9150611ec88183610140870160a08701612138565b611edb81610100860160a08601806120d7565b611eea818360a086018061210d565b611efc8160c0860160a08601806120d7565b611f13816101c085015160a0860160a0870161210d565b505060c00180517f30644e72e131a029b85045b68181585d97816a916871ca8d3c208c16d87cfd4703905250565b6040515f5f51602061259b5f395f51905f5260208301516101e08501350990505f51602061259b5f395f51905f526040830151820890505f51602061259b5f395f51905f52610180840135820890505f5f51602061259b5f395f51905f5260208401516102008601350990505f51602061259b5f395f51905f526040840151820890505f51602061259b5f395f51905f526101a0850135820890505f5f51602061259b5f395f51905f5260408501516101c08701350890505f51602061259b5f395f51905f5282840992505f51602061259b5f395f51905f528184099250505f51602061259b5f395f51905f525f840151830991505f51602061259b5f395f51905f52610260850135830991505f51602061259b5f395f51905f526101a0840151830860808401519092505f51602061259b5f395f51905f5290810391508183085f51602061259b5f395f51905f52036101209390930192909252505050565b8151845260208201516020850152825160408501526020830151606085015260408160808660065afa80610e1357610e13610483565b8151845260208201516020850152823560408501526020830135606085015260408160808660065afa80610e1357610e13610483565b815184526020820151602085015282604085015260408160608660075afa80610e1357610e13610483565b813584526020820135602085015282604085015260408160608660075afa80610e1357610e13610483565b815184526020820151602085015282604085015260408460608660075afa815160408601526020820151606086015260408260808760065afa1680610e1357610e13610483565b813584526020820135602085015282604085015260408460608660075afa815160408601526020820151606086015260408260808760065afa1680610e1357610e13610483565b5f51602061259b5f395f51905f52838335095f51602061259b5f395f51905f5281835108825250505050565b602083526020808401526020604084015280606084015250806080830152505f51602061259b5f395f51905f5260a08201525f60208260c08460055afa806122675761226761044e565b50505190565b949350505050565b5f5f83601f840112612285575f5ffd5b50813567ffffffffffffffff81111561229c575f5ffd5b6020830191508360208285010111156122b3575f5ffd5b9250929050565b5f5f5f5f5f606086880312156122ce575f5ffd5b85359450602086013567ffffffffffffffff8111156122eb575f5ffd5b6122f788828901612275565b909550935050604086013567ffffffffffffffff811115612316575f5ffd5b61232288828901612275565b969995985093965092949392505050565b5f5f60208385031215612344575f5ffd5b823567ffffffffffffffff81111561235a575f5ffd5b61236685828601612275565b90969095509350505050565b5f5f5f5f60408587031215612385575f5ffd5b843567ffffffffffffffff81111561239b575f5ffd5b6123a787828801612275565b909550935050602085013567ffffffffffffffff8111156123c6575f5ffd5b8501601f810187136123d6575f5ffd5b803567ffffffffffffffff8111156123ec575f5ffd5b8760208260051b8401011115612400575f5ffd5b949793965060200194505050565b602081525f82518060208401528060208501604085015e5f604082850101526040601f19601f83011684010191505092915050565b5f5f85851115612451575f5ffd5b8386111561245d575f5ffd5b5050820193919092039150565b80356001600160e01b0319811690600484101561249b576001600160e01b0319600485900360031b81901b82161691505b5092915050565b634e487b7160e01b5f52603260045260245ffd5b60408152826040820152828460608301375f606084830101525f601f19601f85011682016060810160608483030160208501528085518083526080840191506020870193505f92505b8083101561252257835182526020820191506020840193506001830192506124ff565b50979650505050505050565b5f6020828403121561253e575f5ffd5b8151801515811461254d575f5ffd5b9392505050565b818382375f9101908152919050565b5f60208284031215612573575f5ffd5b505191905056fe0c9fabc7845d50d2852e2a0371c6441f145e0db82e8326961c25f1e3e32b045b30644e72e131a029b85045b68181585d2833e84879b9709143e1f593f000000130644e72e131a029b85045b68181585d2833e84879b9709143e1f593f0000000a264697066735822122033351d0b2f752dd6758483baac544fdea956c299a9cb29a02e79d6efe2ce2aa764736f6c634300081c0033","linkReferences":{}},"methodIdentifiers":{"VERIFIER_HASH()":"2a510436","VERSION()":"ffa1ad74","Verify(bytes,uint256[])":"7e4f7a8a","hashPublicValues(bytes)":"6b61d8e7","verifyProof(bytes32,bytes,bytes)":"41493c60"},"id":2}